:020000040000FA
:100000000C94CD010C94F5010C94F5010C94F501C0
:100010000C94F5010C94F5010C94F5010C94F50188
:100020000C94F5010C94F5010C94F5010C94040B5F
:100030000C94F5010C94F5010C94F5010C94F50168
:100040000C94620A0C94F5010C94D20A0C94AC0A3C
:100050000C94F5010C94F5010C94F5010C94F50148
:100060000C94F5010C94F501084AD73B3BCE016E88
:1000700084BCBFFDC12F3D6C74319ABD56833DDAFF
:100080003D00C77F11BED9E4BB4C3E916BAAAABE0E
:10009000000000803F072C7AA5BA6CC590DA3B932C
:1000A00065FC8BBC53F810FD3C5692834DBD879D7B
:1000B0003AB63DCBC9BF5BBE73DA0FC93F004E41B4
:1000C0004E494E495459494E46CDCCCC3D0AD723D2
:1000D0003C17B7D13877CC2B329595E6241FB14F1A
:1000E0000A000020410000C84200401C4620BCBE5F
:1000F0004CCA1B0E5AAEC59D743C20417264756992
:100100006E6F3A20536572766F7320417869732061
:1001100056616C75657320536574203E003C204524
:1001200052524F523A204A6F696E742042205661F3
:100130006C7565206F7574206F66206D696E2F6D0C
:1001400061782072616E6765203E003C2045525206
:100150004F523A204A6F696E7420412056616C7587
:1001600065206F7574206F66206D696E2F6D6178E4
:100170002072616E6765203E003C204552524F520E
:100180003A204261736520417869732056616C752D
:1001900065206F7574206F66206D696E2F6D6178B4
:1001A0002072616E6765203E003C20455252524FDE
:1001B000523A20496E7075742076616C75657320B3
:1001C000496E76616C6964203E005B4552524F5225
:1001D0003A204E4F20535441544520444554454302
:1001E0005445445D005B4552524F523A204E4F20D9
:1001F0004D4F44452044455445435445445D005BC0
:100200004552524F523A204D757374204265206911
:100210006E204964656C2F53746F70706564204163
:100220004E4420696E204175746F206D6F646520A7
:10023000746F206368616E676520746F2041757408
:100240006F204D6F64655D005B4552524F523A20FE
:10025000416C726561647920696E204175746F200C
:100260004D6F64655D005B4552524F523A204D75AB
:10027000737420426520696E204964656C2F537445
:100280006F7070656420414E4420696E2041757422
:100290006F206D6F646520746F206368616E6765A1
:1002A00020746F204D616E61756C204D6F64655DCB
:1002B000005B4552524F523A20416C72656164793D
:1002C00020696E204D616E75616C204D6F64655DB7
:1002D000005B4552524F523A20796F75206172652A
:1002E00020616C72656164792073746F70706564ED
:1002F0005D005B4552524F523A204D757374204257
:100300006520696E204964656C20537461746520B2
:10031000746F206D6F766520746F205374617274F2
:1003200065645D005B4552524F523A20416C7265E4
:1003300061647920696E205374617274656420531E
:10034000746174655D000000000800020100000394
:10035000040700000000000000000000000025006D
:1003600028002B0000000000240027002A000404BD
:10037000040404040404020202020202030303034D
:100380000303010204081020408001020408102029
:10039000010204081020C00B821111241FBECFEFF0
:1003A000D8E0DEBFCDBF13E0A0E0B1E0ECE2F3E3C4
:1003B00002C005900D92A433B107D9F724E0A4E35D
:1003C000B3E001C01D92AC3CB207E1F711E0CCEC08
:1003D000D1E004C02197FE010E946C17CB3CD107ED
:1003E000C9F70E94840C0C9489190C94000090E0C9
:1003F000FC01EE57FC4F249182599C4FFC018491E3
:10040000882399F090E0880F991FFC01EC59FC4F6C
:10041000A591B491FC01E65AFC4F859194918FB758
:10042000F894EC91E22BEC938FBF089590E0FC01DF
:10043000EA5BFC4F2491FC01EE57FC4F3491FC0128
:10044000E259FC4FE491EE23C9F0222339F0233026
:1004500001F1A8F4213019F1223029F1F0E0EE0F7A
:10046000FF1FE65AFC4FA591B4918FB7F894EC9119
:10047000611126C030953E233C938FBF08952730ED
:10048000A9F02830C9F0243049F7809180008F7D91
:1004900003C0809180008F7780938000DFCF84B588
:1004A0008F7784BDDBCF84B58F7DFBCF8091B0008B
:1004B0008F778093B000D2CF8091B0008F7DF9CF3D
:1004C0003E2BDACF3FB7F89480919203909193033B
:1004D000A0919403B091950326B5A89B05C02F3F2A
:1004E00019F00196A11DB11D3FBFBA2FA92F982F5A
:1004F0008827BC01CD01620F711D811D911D42E055
:10050000660F771F881F991F4A95D1F708950895A0
:10051000AF92BF92CF92DF92EF92FF920F931F9311
:10052000CF93DF936C017B018B01040F151FEB014F
:100530005E01AE18BF08C017D10759F06991D60106
:10054000ED91FC910190F081E02DC6010995892B78
:1005500079F7C501DF91CF911F910F91FF90EF9037
:10056000DF90CF90BF90AF900895FC01538D448DE4
:10057000252F30E0842F90E0821B930B541710F04E
:10058000CF96089501970895FC01918D828D98175B
:1005900061F0A28DAE0FBF2FB11D5D968C91928D33
:1005A0009F5F9F73928F90E008958FEF9FEF089564
:1005B000FC01918D828D981731F0828DE80FF11D2D
:1005C000858D90E008958FEF9FEF0895FC01918D48
:1005D000228D892F90E0805C9F4F821B91098F7341
:1005E0009927089586E993E00E94E60221E0892B8D
:1005F00009F420E0822F089580E090E0892B29F013
:100600000E94F20281110C9400000895FC01A48D57
:10061000A80FB92FB11DA35ABF4F2C91848D90E024
:1006200001968F739927848FA689B7892C93A08907
:10063000B1898C91837080648C93938D848D981391
:1006400006C00288F389E02D80818F7D8083089524
:10065000EF92FF920F931F93CF93DF93EC0181E012
:10066000888F9B8D8C8D98131AC0E889F9898081B9
:1006700085FF15C09FB7F894EE89FF896083E889EC
:10068000F98980818370806480839FBF81E090E0DE
:10069000DF91CF911F910F91FF90EF900895F62E6B
:1006A0000B8D10E00F5F1F4F0F731127E02E8C8D05
:1006B0008E110CC00FB607FCFACFE889F98980814A
:1006C00085FFF5CFCE010E940603F1CFEB8DEC0F35
:1006D000FD2FF11DE35AFF4FF0829FB7F8940B8F67
:1006E000EA89FB8980818062CFCFCF93DF93EC01D1
:1006F000888D8823B9F0AA89BB89E889F9898C910A
:1007000085FD03C0808186FD0DC00FB607FCF7CFC5
:100710008C9185FFF2CF808185FFEDCFCE010E94C5
:100720000603E9CFDF91CF9108951F93CF93DF9315
:10073000EC01162F88818C3008F04DC0862F0E9466
:10074000F7018881282F30E0F901EE0FFF1FE20F3B
:10075000F31FEE5BFC4F1F736081607C612B608335
:1007600019821A822CE0622F0E946017829FB001CA
:10077000112430E020E0AB01420F531FFA01EE0FCD
:10078000FF1FE40FF51FEE5BFC4F908196FD16C036
:100790002F5F3F4F2C30310571F781110FC0109240
:1007A000800082E080938100109285001092840086
:1007B000B19A80916F00826080936F00E8818E2FE4
:1007C00090E0FC01EE0FFF1FE80FF91FEE5BFC4FFE
:1007D0008081806480838881DF91CF911F9108950B
:1007E000FC01909141039C3098F481E0890F809343
:1007F00041039083892F90E0FC01EE0FFF1FE80F6B
:10080000F91FEE5BFC4F88EB9BE092838183089598
:100810008FEF80830895FC0101900020E9F7319764
:10082000AF01481B590BBC0186E993E00C94880288
:10083000CF93DF93FC01448155816081718186E90A
:1008400093E00E948802EC0188E191E00E940B0491
:100850008C0F9D1FDF91CF9108950F931F93CF931E
:10086000DF938C01D0E0C0E0F801EC0FFD1F649134
:10087000662341F086E993E00E942803892B11F05A
:100880002196F2CF88E191E00E940B048C0F9D1F0E
:10089000DF91CF911F910F9108958F929F92AF9208
:1008A000BF920F931F93CF93DF93CDB7DEB7A1977E
:1008B0000FB6F894DEBF0FBECDBF19A2423008F4C8
:1008C0004AE08E010F5D1F4F842E912CB12CA12C7C
:1008D000A50194010E94DF14E62FB901CA01EA3094
:1008E000F4F4E05DD801EE938D01232B242B252B0E
:1008F00079F790E080E0109719F0CD010E940B0489
:10090000A1960FB6F894DEBF0FBECDBFDF91CF9199
:100910001F910F91BF90AF909F908F900895E95CC9
:10092000E1CF0C940B044F925F926F927F928F9263
:100930009F92AF92BF92CF92DF92EF92FF920F936E
:100940001F93CF936B017C01742EAC019B010E941D
:100950004617882399F08BE191E0CF911F910F9179
:10096000FF90EF90DF90CF90BF90AF909F908F90CF
:100970007F906F905F904F900C940B04460157014D
:10098000E894B7F82FEF3FEF4FE75FE7C501B401F9
:100990000E94461781110DC02FEF3FEF4FE75FE731
:1009A000C501B4010E944F1318161CF48FE191E0A9
:1009B000D4CF2FEF3FEF4FE75FE4C701B6010E94AE
:1009C000EF1618161CF483E291E0C7CF2FEF3FEF2C
:1009D0004FE75FECC701B6010E944F1387FDF3CFCD
:1009E00020E030E0A901C701B6010E944F1310E0DA
:1009F00000E087FF0AC06DE286E993E00E942803C9
:100A00008C01F7FAF094F7F8F094C0E060E070E041
:100A100080E09FE37C1641F020E030E040E251E4CA
:100A20000E940016CF5FF6CFA70196010E94221503
:100A30002B013C010E9479164B015C014AE00E94A7
:100A40004D047C01E00EF11ECC23C1F1C501B401BF
:100A50000E9454139B01AC01C301B2010E942115F5
:100A60004B015C016EE286E993E00E942803E80EE8
:100A7000F91EC15018F120E030E040E251E4C50118
:100A8000B4010E94B5132B013C010E9479164B0161
:100A9000B12CA12C4AE0C501B4010E944D04E80E1E
:100AA000F91EC501B4010E9454139B01AC01C3019E
:100AB000B2010E9421154B015C01DBCFC701CF9130
:100AC0001F910F91FF90EF90DF90CF90BF90AF906C
:100AD0009F908F907F906F905F904F900895CF93ED
:100AE000DF930E940B04EC0188E191E00E940B046B
:100AF0008C0F9D1FDF91CF9108954F925F926F925F
:100B00007F929F92AF92BF92CF92DF92EF92FF922D
:100B10000F931F93CF93DF93C62F972ED82F2901C2
:100B20003A01A8019701C301B2010E94EF161816FD
:100B300044F0A6019501C301B2010E944F1387FF43
:100B40007EC0C301B2010E9472169B01603242E076
:100B50007407BCF5E8E8CE2ED12CC918D10897FC53
:100B6000D394CC0CDD1CCC0CDD1C0D2C000CEE0841
:100B7000FF0828E532E02D1B3109D7FD3395220F00
:100B8000331F220F331F032E000C440B550B2C195F
:100B90003D094E095F09DB01653B710514F0A4EBCB
:100BA000B0E0B7FF02C0B0E0A0E00E94A01424EBC8
:100BB00030E040E050E00E9476142C0D3D1D4E1DAB
:100BC0005F1DCC3060F588E890E08919910997FCA9
:100BD0009395880F991F880F991F2817390774F06C
:100BE00088E592E08D1B9109D7FD9395880F991F99
:100BF000880F991F281739070CF4C9010297880F2D
:100C0000991F4FB7F8942C2F30E0E901CC0FDD1F6E
:100C1000C20FD31FCE5BDC4F9A8389834FBFDF9116
:100C2000CF911F910F91FF90EF90DF90CF90BF90E9
:100C3000AF909F907F906F905F904F90089587E264
:100C400091E00E94910442E0C301B2010E9493042A
:100C50008CE491E00E946F058AE191E0DF91CF91F1
:100C60001F910F91FF90EF90DF90CF90BF90AF90CA
:100C70009F907F906F905F904F900C946F05AF9214
:100C8000BF92CF92DF92EF92FF920F931F938091CA
:100C90006D038823C1F06091B7047091B80480910E
:100CA000B904A12CB12C34E7C32E32E4D32EE12CAD
:100CB000F12C00E810E420E030E042E852E40E9429
:100CC0007D0510926D0380916C038823C1F06091C3
:100CD000B7047091B8048091B904A12CB12C94E7A9
:100CE000C92E92E4D92EE12CF12C00E810E420E08A
:100CF00030E040EA50E40E947D0510926C031F91A1
:100D00000F91FF90EF90DF90CF90BF90AF9008953C
:100D10009F92AF92BF92CF92DF92EF92FF920F938A
:100D20001F93CF93DF93962ED42FC22F8823A9F041
:100D30006091C0047091C1048091C204A12CB12CB7
:100D400054E3C52E53E4D52EE12CF12C870120E08D
:100D500030E048EC52E40E947D059920A9F06091B2
:100D6000BD047091BE048091BF04A12CB12C44E35A
:100D7000C42E43E4D42EE12CF12C870120E030E096
:100D800044EB52E40E947D05DD23A9F06091BA0492
:100D90007091BB048091BC04A12CB12C34E3C32E10
:100DA00033E4D32EE12CF12C870120E030E04AEA35
:100DB00052E40E947D05CC23B1F06091B70470919C
:100DC000B8048091B904A12CB12C94E7C92E92E407
:100DD000D92EE12CF12C00E810E420E030E040EACC
:100DE00050E40E947D05DF91CF911F910F91FF90FC
:100DF000EF90DF90CF90BF90AF909F900895CF93EA
:100E0000DF9342E00E949304EC0188E191E00E94AC
:100E10000B048C0F9D1FDF91CF910895CF93DF932B
:100E2000209143043091440462177307A0F49B019E
:100E3000C0913F04D0914004FC0160817181CE01DA
:100E4000820F931F0E946F19009729F08C1B9D0B36
:100E5000DF91CF9108958FEF9FEFFACF70E060E0C0
:100E60000C940E07CF93DF93EC0188819981009752
:100E700011F00E940E18198218821D821C821B829A
:100E80001A82DF91CF910895FC01808191810097B2
:100E900011F00C940E1808950F931F93CF93DF93C6
:100EA000EC0188819981009759F02A813B812617AE
:100EB000370730F081E0DF91CF911F910F910895B6
:100EC0008B016F5F7F4F0E949718009759F09983AD
:100ED00088831B830A832C813D81232B59F7FC01D6
:100EE0001082E8CF80E0E7CF0F931F93CF93DF937B
:100EF00000D0CDB7DEB789831A8200913D041091EE
:100F00003E040F5F1F4FB80189E394E00E944C0735
:100F10008823A1F02091390430913A0480913D0456
:100F200090913E04BE016F5F7F4F820F931F0E941E
:100F3000681910933E0400933D0481E00F900F90D8
:100F4000DF91CF911F910F910895EF92FF920F9330
:100F50001F93CF93DF93EC017B018A01BA010E94BA
:100F60004C0781110BC0CE010E943207CE01DF91E8
:100F7000CF911F910F91FF90EF9008951D830C83E7
:100F8000B701888199810E946819F0CFFC01118214
:100F900010821382128215821482FB0101900020BC
:100FA000E9F73197AF01461B570B0C94A507AF9299
:100FB000BF92CF92DF92EF92FF920F931F93CF9346
:100FC000DF937C016B015A0189012417350720F456
:100FD0008B2D5901042F182F6AE171E0C7010E947F
:100FE000C607D6011496CD91DC91AC16BD0620F54E
:100FF0000C171D0708F4E801D601ED91FC9111973B
:10100000EC0FFD1F108110826D917C916A0D7B1D8C
:1010100061157105E9F0FB0101900020E9F73197B6
:10102000AF01461B570BC7010E94A507F60180813F
:101030009181C80FD91F1883C701DF91CF911F91EC
:101040000F91FF90EF90DF90CF90BF90AF900895F9
:10105000C7010E943207EACF4F925F926F927F9250
:101060008F929F92AF92BF92CF92DF92EF92FF92B8
:101070000F931F93CF93DF93CDB7DEB728970FB6AB
:10108000F894DEBF0FBECDBF80907C0390907D03AF
:10109000A0907E03B0907F03409078035090790336
:1010A00060907A0370907B03A5019401C301B201A3
:1010B0000E94A11569837A838B839C83A501940187
:1010C000C501B4010E94B5136B017C01A30192011B
:1010D000C301B2010E94B5139B01AC01C701B60167
:1010E0000E9422150E9402176B017C01AC019B013A
:1010F0000E94B5132B013C0120E030E040E153E4B5
:101100000E94221520E030E040E153E40E942115C6
:101110006D837E838F839887A7019601C701B601EF
:101120000E94221520E030E040E451E40E94B51313
:101130009B01AC016D817E818F8198850E94001694
:101140000E9410159B01AC0169817A818B819C8181
:101150000E9422156B017C01A301920160E070E006
:1011600080E993E40E94211520E030E040E953E457
:101170000E9400160E94101569837A838B839C83DA
:101180002091740330917503409176035091770359
:10119000C501B4010E94A1152B013C0120E030EDF6
:1011A0004FE557E4C701B6010E94B51320E030E0D7
:1011B0004AE754E40E94001660933C0370933D0399
:1011C00080933E0390933F03A701960169EF7FE070
:1011D00089EC9FE30E9421159B01AC0169817A8112
:1011E0008B819C810E94211520E030ED4FE557E472
:1011F0000E94B51320E030E04AE754E40E94001654
:10120000609338037093390380933A0390933B03C0
:1012100020E030ED4FE557E4C301B2010E94B51361
:1012200020E030E04AE754E40E9400166093340363
:1012300070933503809336039093370383E691E0F0
:101240000E94910460913C0370913D0380913E03A4
:1012500090913F030E94FF0683E791E00E94910472
:10126000609138037091390380913A0390913B0368
:101270000E94FF0683E891E00E94910460917C0344
:1012800070917D0380917E0390917F0342E00E94E4
:1012900093048BE891E00E9491046091780370912F
:1012A000790380917A0390917B0342E00E9493043A
:1012B0008FE891E00E94910460917403709175032E
:1012C00080917603909177030E94FF068AE191E076
:1012D0000E946F0580903C0390903D03A0903E03D8
:1012E000B0903F03A5019401C501B4010E944617C7
:1012F000811110C0C0903403D0903503E0903603C4
:10130000F0903703A7019601C701B6010E94461766
:101310008823E9F089EA91E00E942D0410926E037F
:1013200028960FB6F894DEBF0FBECDBFDF91CF91E8
:101330001F910F91FF90EF90DF90CF90BF90AF90F3
:101340009F908F907F906F905F904F90089520E0D6
:1013500030E0A901C701B6010E944F1387FD0AC002
:1013600020E030E044E353E4C701B6010E94EF16E9
:1013700018161CF489E791E0CFCF20E030E0A901F6
:10138000C501B4010E944F1387FD0AC020E030E080
:1013900044E353E4C501B4010E94EF1618161CF48F
:1013A0008BE491E0B9CF8090380390903903A090FE
:1013B0003A03B0903B0320E030E0A901C501B4013D
:1013C0000E944F1387FD0AC020E030E044E353E45D
:1013D000C501B4010E94EF1618161CF48DE191E0CE
:1013E0009BCF20E030E040E251E4C701B6010E940B
:1013F00022159B01AC016091C0047091C1048091E1
:10140000C204A12CB12C94E3C92E93E4D92EE12C73
:10141000F12C87010E947D0520913C0330913D0312
:1014200040913E0350913F036091BD047091BE0412
:101430008091BF040E947D052091380330913903CB
:1014400040913A0350913B03C601B5010E9421151A
:1014500020E030E040EA50E40E9421159B01AC01FD
:101460006091BA047091BB048091BC040E947D0518
:1014700089EF90E00E942D040E9462024B015C0102
:1014800024EFC22EDD24D394E12CF12C0E946202C1
:10149000681979098A099B09683E7340810591059D
:1014A000A8F321E0C21AD108E108F10888EE880EFD
:1014B00083E0981EA11CB11CC114D104E104F10405
:1014C00029F72CCF1F920F920FB60F9211242F9352
:1014D0003F938F939F93AF93BF9380918E0390918F
:1014E0008F03A0919003B091910330918D0323E07D
:1014F000230F2D3758F50196A11DB11D20938D03A3
:1015000080938E0390938F03A0939003B0939103E5
:101510008091920390919303A0919403B0919503CD
:101520000196A11DB11D8093920390939303A09304
:101530009403B0939503BF91AF919F918F913F9189
:101540002F910F900FBE0F901F90189526E8230F34
:101550000296A11DB11DD2CF1F920F920FB60F920E
:1015600011242F933F934F935F936F937F938F93A8
:101570009F93AF93BF93EF93FF9386E993E00E940D
:101580000603FF91EF91BF91AF919F918F917F9152
:101590006F915F914F913F912F910F900FBE0F90E0
:1015A0001F9018951F920F920FB60F9211242F9330
:1015B0008F939F93EF93FF93E091A603F091A7037E
:1015C0008081E091AC03F091AD0382FD1BC090815E
:1015D0008091AF038F5F8F732091B003821741F02A
:1015E000E091AF03F0E0EA56FC4F958F8093AF0394
:1015F000FF91EF919F918F912F910F900FBE0F90C0
:101600001F9018958081F4CF1F920F920FB60F9202
:1016100011242F933F934F935F936F937F938F93F7
:101620009F93AF93BF93CF93DF93EF93FF938091FB
:101630004003C0914103D0E087FF24C01092850091
:1016400010928400809140038F5F809340038091CB
:101650004003082E000C990B8C179D0724F48091F1
:1016600040038C30C4F180918400909185000496F1
:1016700080349C4908F47AC0809184009091850060
:10168000049676C080914003082E000C990B8C17AD
:101690009D07C4F6E09140038E2FEE0F990BFC01DD
:1016A000EE0FFF1FE80FF91FEE5BFC4F808186FFF6
:1016B000C9CFE09140038E2FEE0F990BFC01EE0F86
:1016C000FF1FE80FF91FEE5BFC4F808160E08F7316
:1016D0000E941602B7CF2091840030918500E091DE
:1016E00040038E2FEE0F990BFC01EE0FFF1FE80F4A
:1016F000F91FEE5BFC4F81819281820F931F9093C3
:10170000890080938800E09140038E2FEE0F990BA3
:10171000FC01EE0FFF1FE80FF91FEE5BFC4F80810D
:1017200086FF11C0E09140038E2FEE0F990BFC0154
:10173000EE0FFF1FE80FF91FEE5BFC4F808161E0A9
:101740008F730E941602FF91EF91DF91CF91BF91AD
:10175000AF919F918F917F916F915F914F913F9149
:101760002F910F900FBE0F901F90189580E49CE969
:1017700090938900809388008FEF80934003E3CF9C
:10178000E6E9F3E01382128288EE93E0A0E0B0E095
:1017900084839583A683B7838AE091E091838083D5
:1017A00085EC90E09587848784EC90E09787868726
:1017B00080EC90E0918B808B81EC90E0938B828B1E
:1017C00082EC90E0958B848B86EC90E0978B868BF7
:1017D000118E128E138E148E83EC94E00E94F0030F
:1017E00080EC94E00E94F0038DEB94E00E94F00303
:1017F0008AEB94E00E94F00387EB94E00E94F003F0
:1018000063E971E081EB94E00E94C6076EE971E044
:101810008BEA94E00E94C6076CEA71E085EA94E0E6
:101820000E94C6076AEB71E08FE994E00E94C60748
:1018300066EC71E089E994E00E94C60763ED71E00F
:1018400083E994E00E94C60763EE71E08DE894E0BE
:101850000E94C60763EF71E087E894E00E94C60724
:1018600061E072E081E894E00E94C6076EE072E0F9
:101870008BE794E00E94C6076CE172E085E794E094
:101880000E94C6076AE272E08FE694E00E94C607F3
:1018900066E372E089E694E00E94C60766E472E0BF
:1018A00083E694E00E94C60766E572E08DE594E069
:1018B0000E94C6076AE672E087E594E00E94C607C8
:1018C0006CE772E081E594E00E94C6076FE872E081
:1018D0008BE494E00E94C60761EA72E085E494E03C
:1018E0000E94C6076AE171E08FE394E00E94C60798
:1018F0006AE171E089E394E00E94C6076AE171E061
:1019000083E394E00C94C607CF93DF9300D000D01C
:1019100000D0CDB7DEB7789484B5826084BD84B53D
:10192000816084BD85B5826085BD85B5816085BDDA
:1019300080916E00816080936E0010928100809192
:10194000810082608093810080918100816080931A
:101950008100809180008160809380008091B1003F
:1019600084608093B1008091B00081608093B0006A
:1019700080917A00846080937A0080917A008260FE
:1019800080937A0080917A00816080937A008091C0
:101990007A00806880937A001092C100E091A603DB
:1019A000F091A70382E08083E091A203F091A3036A
:1019B0001082E091A403F091A5038FEC8083109234
:1019C000AE03E091AA03F091AB0386E08083E0913F
:1019D000A803F091A903808180618083E091A8032E
:1019E000F091A903808188608083E091A803F09141
:1019F000A903808180688083E091A803F091A90306
:101A000080818F7D808382EB92E00E946F058EEC57
:101A100092E00E946F0582EB92E00E946F0588E1E0
:101A200091E00E940B0468E070E080EC94E00E947A
:101A3000950369E070E08DEB94E00E9495036AE005
:101A400070E08AEB94E00E9495036BE070E087EB16
:101A500094E00E94950382E00E94F70160E070E04C
:101A6000CB010E94FF0660E070E084E393E40E94F3
:101A7000FF0621E041E061E081E00E94880670E01D
:101A8000A72E70E0B72E11E0E2E06E2E712CCC2470
:101A9000C394D12C86E993E00E94E60220918C0346
:101AA000181619067CF4211110C086E993E00E94F3
:101AB000C402833209F054C083E20E947407109379
:101AC0008C03E8CF222309F4FBC2609139047091A2
:101AD0003A046115710509F446C040913D045091E6
:101AE0003E048FE394E00E94A50750E040E06AE1E5
:101AF00071E089E394E00E94A50710928C03609145
:101B00003F04709140046115710591F140914304C7
:101B10005091440483E394E00E94A5078091370428
:101B200090913804892B49F1E0903304F09034040B
:101B300064E270E0C7010E945D194C018E189F0895
:101B4000892B19F488248A94982C63E270E0C701E9
:101B50000E945D199C012E193F09892B99F410C030
:101B60000E94740797CF8FE394E00E943207BDCFA5
:101B700083E394E00E943207D1CF88248A94982C82
:101B80002FEF3FEFA4014F5F5F4F63E374E0CE019F
:101B900001960E94D70780913304909134040097F6
:101BA00009F445C069817A8161157105F1F14091AF
:101BB0003504509136042D813E8142175307A8F118
:101BC0000E9468198D819E81909338048093370418
:101BD0001E821D82CE0101960E9444078AEE92E089
:101BE0000E9491044091370450913804609133046D
:101BF0007091340486E993E00E94880282E393E0C6
:101C00000E946F0585E494E00E942E07019651F131
:101C10008091700390917103009701F10197C9F1D0
:101C200085EE91E00E942D041DC00E940E1889814E
:101C30009A8190933404809333048B819C81909398
:101C40003604809335048D819E819093380480936F
:101C500037041A8219821C821B82BACF85E794E06E
:101C60000E9418048BE494E00E942E070196C1F0B4
:101C700080917203909173038130910509F439C208
:101C800058F0029709F438C28AEC91E00E942D04C2
:101C900007C08FE694E0E4CF89E994E00E9418043D
:101CA00085E794E00E942E070196C1F02091700311
:101CB0003091710380917203909173038D7F892B12
:101CC00009F01DC22130310509F019C210927103CB
:101CD0001092700385E794E00E9418048FE694E068
:101CE0000E942E070196C1F020917003309171037C
:101CF00080917203909173038D7F892B09F008C244
:101D00002115310509F004C2D0927103C09270030D
:101D10008FE694E00E9418048BE794E00E942E075F
:101D2000019679F080917203909173038D7F892BD6
:101D300041F4109273031092720389E994E00E94B7
:101D4000180487E894E00E942E07019679F08091AC
:101D5000720390917303009709F0E4C1D09273036A
:101D6000C092720383E994E00E94180481E894E031
:101D70000E942E07019679F080917203909173036F
:101D8000029709F4D9C170927303609272038DE8CF
:101D900094E00E94180481EB94E00E942E070196C3
:101DA00031F010936B0381EB94E00E9418048BEAEE
:101DB00094E00E942E07019631F010936A038BEA9B
:101DC00094E00E94180485EA94E00E942E07019690
:101DD00031F01093690385EA94E00E9418048FE9BA
:101DE00094E00E942E07019631F0109368038FE96A
:101DF00094E00E94180489E694E00E942E07019660
:101E000031F01093660389E694E00E94180483E69B
:101E100094E00E942E07019631F01093670383E649
:101E200094E00E94180487E594E00E942E07019632
:101E300031F010936D0387E594E00E94180481E56A
:101E400094E00E942E07019631F010936C0381E517
:101E500094E00E94180461E073E0CE0101960E94B4
:101E6000C607CE0101960E942E077C01CE01019685
:101E70000E944407EF20E09409F4F2C080917203BD
:101E800090917303019709F0EBC069E871E0CE010E
:101E900001960E94C60770E060E0CE0101960E94A4
:101EA0000E077C01CE0101960E9444076DE073E0AD
:101EB000CE0101960E94C607B701CE0101960E948D
:101EC0000E074C01CE0101960E944407A7014F5F07
:101ED0005F4F94016FE374E0CE0101960E94D70733
:101EE00089819A81009709F42CC10E94DA116093CC
:101EF0008403709385038093860390938703CE01B8
:101F000001960E9444076DE871E0CE0101960E949F
:101F1000C607B401CE0101960E940E077C01CE01D6
:101F200001960E9444076DE073E0CE0101960E9485
:101F3000C607B701CE0101960E940E074C01CE01E3
:101F400001960E944407A7014F5F5F4F94016FE322
:101F500074E0CE0101960E94D70789819A8100978B
:101F600009F4F3C00E94DA11609388037093890327
:101F700080938A0390938B03CE0101960E944407BD
:101F800061E971E0CE0101960E94C607B401CE015D
:101F900001960E940E077C01CE0101960E94440723
:101FA0006AEA71E0CE0101960E94C607B701CE0130
:101FB00001960E940E074C01CE0101960E94440733
:101FC000A7014F5F5F4F94016FE374E0CE0101966C
:101FD0000E94D70789819A81009709F4BAC00E94AC
:101FE000DA1160938C0370938D0380938E0390932A
:101FF0008F03CE0101960E9444078FE093E00E9478
:10200000910460918403709185038091860390917F
:10201000870342E00E9493048DE093E00E949104C4
:10202000609188037091890380918A0390918B035A
:1020300042E00E9493048DE093E00E94910460913D
:102040008C0370918D0380918E0390918F0342E0F9
:102050000E94930482E393E00E946F0510936E0345
:102060008091840390918503A0918603B0918703AA
:1020700080937C0390937D03A0937E03B0937F03B2
:102080008091880390918903A0918A03B0918B037A
:102090008093780390937903A0937A03B0937B03A2
:1020A00080918C0390918D03A0918E03B0918F034A
:1020B0008093740390937503A0937603B093770392
:1020C0008091720390917303019709F002C160E05F
:1020D00082E00E9416028091700390917103009734
:1020E000E1F1019709F4E5C08AE193E00E946F05F0
:1020F000D4C083E994E0D2CD8DE894E0CFCD81EBDC
:1021000092E0232B11F086E692E00E942D04E6CDAA
:1021100088E492E02130310511F08FEF91E00E94C8
:102120002D04FACD019729F484E293E00E942D0456
:102130001DCE82EF92E0FACF81ED92E00E942D0455
:102140002ACE60E070E0CB01D2CE60E070E0CB013F
:102150000BCF60E070E0CB0144CF80916F03882308
:1021600029F080916E0381110E942C0880916D03EB
:10217000811103C080916C0381110E943F06809100
:102180006B03882341F021E041E061E081E00E949F
:10219000880610926B0380916A03882341F020E047
:1021A00040E061E080E00E94880610926A0380911E
:1021B0006903882341F020E041E060E080E00E9474
:1021C00088061092690380916803882341F020E01B
:1021D00040E060E081E00E948806109268038091F0
:1021E00067038823D1F1E091C0048E2F90E0FC01B9
:1021F000EE0FFF1FE80FF91FEE5BFC4F80818F7B16
:102200008083E091BD048E2F90E0FC01EE0FFF1F54
:10221000E80FF91FEE5BFC4F80818F7B8083E0919C
:10222000BA048E2F90E0FC01EE0FFF1FE80FF91F9C
:10223000EE5BFC4F80818F7B8083E091B7048E2F13
:1022400090E0FC01EE0FFF1FE80FF91FEE5BFC4F63
:1022500080818F7B8083109267038091660388233F
:10226000D1F068E070E080EC94E00E94950369E0B2
:1022700070E08DEB94E00E9495036AE070E08AEBD9
:1022800094E00E9495036BE070E087EB94E00E947D
:1022900095031092660310936F03A114B10409F41F
:1022A000F9CB0E94F202882309F4F4CB0E940000CB
:1022B000F1CB80916E0381110E942C0880916D03F7
:1022C000811104C080916C03882339F30E943F067A
:1022D000E4CF61E082E00E94160210926F03109238
:1022E0006B0310926A0310926903109268031092B4
:1022F0006E03109266031092670310926D031092A2
:102300006C03CBCF83E394E00E94440789E394E01D
:102310000E9444078FE394E00E94440785E494E020
:102320000E9444078BE494E00E94440781E594E016
:102330000E94440787E594E00E9444078DE594E0FD
:102340000E94440783E694E00E94440789E694E0F3
:102350000E9444078FE694E00E94440785E794E0DA
:102360000E9444078BE794E00E94440781E894E0D0
:102370000E94440787E894E00E9444078DE894E0B7
:102380000E94440783E994E00E94440789E994E0AD
:102390000E9444078FE994E00E94440785EA94E094
:1023A0000E9444078BEA94E00E94440781EB94E08A
:1023B0000C944407662777270C94DE11B0E0A0E068
:1023C000E4EEF1E10C94AE145C017B016115710542
:1023D00019F0DB018D939C9385010F5F1F4FF50171
:1023E000D0818D2F90E00E942E136C01892BB9F5BE
:1023F000DD32B9F50F5F1F4FD5011196DC91C1E0B9
:102400005801F1E0AF1AB10843E050E066EC70E02B
:10241000C5010E943713892B69F5680182E0C80E57
:10242000D11C45E050E061EC70E0C6010E9437131A
:10243000892B21F4680197E0C90ED11CE114F10445
:1024400019F0D701CD92DC9260E070E080E89FEF58
:10245000C111FFC060E070E080E89FE7FAC058015A
:10246000BBCFDB3229F485010E5F1F4FF501D1810F
:10247000C0E0C6CF43E050E06EEB70E0C5010E94C3
:102480003713892BE9F0F80110E000E020E030E09C
:10249000A9015F01B0ED8B2E8D0E89E08815C8F182
:1024A0009C2E689491F88C2F8870C2FF16C0811101
:1024B00002C00F5F1F4F3196D501DC91C92DE9CFC6
:1024C000E114F10429F00E5F1F4FF701118300831F
:1024D00060E070E080EC9FE7BCC0882311F0015001
:1024E0001109A5E0B0E00E9495149B01AC01220FF8
:1024F000331F441F551F280D311D411D511D283903
:1025000099E93907490799E15907A8F2C6609C2E55
:10251000D2CFAEEF8A1206C0C3FD3CC09C2E689499
:1025200093F8C9CFDF7DD534A9F580818D3239F498
:10253000C061DF011296818162E070E006C0DF01B8
:102540008B32C1F3119661E070E080535D01A61AF1
:10255000B70A8A30F8F4E0E8CE16ECE0DE065CF468
:10256000B601660F771F660F771FC60ED71ECC0CFD
:10257000DD1CC80ED11C5D01FFEFAF1ABF0A8C91A4
:1025800080538A30A8F1C4FF03C0D194C194D1080C
:102590000C0D1D1DC1FF09C0E114F10431F081E0F3
:1025A000A81AB108D701AD92BC92CA01B9010E9424
:1025B0005413C370C33009F490584B015C0120E000
:1025C00030E0A9010E944F13882309F440C0C5EFF1
:1025D000D0E017FF05C0119501951109CDEDD0E0B0
:1025E0006E01B8E1CB1AD10880E2E82EF12C0FC0C1
:1025F000D501B1CFFE0125913591459154910E1928
:102600001F09C501B4010E94B5134B015C01D5013E
:10261000C4010E151F0574F72497F594E794CC16A2
:10262000DD06A9F78A2F880F8B2F881F8F3F49F06F
:1026300020E030E0A901C501B4010E944F138111CF
:1026400006C082E290E09093C7048093C604C5015F
:10265000B401CDB7DEB7ECE00C94CA1491110C9420
:102660002214803219F089508550C8F70895FB0173
:10267000DC014150504088F08D9181341CF08B3545
:102680000CF4805E659161341CF06B350CF4605E77
:10269000861B611171F3990B0895881BFCCF0E9472
:1026A000911308F481E00895E89409C097FB3EF483
:1026B00090958095709561957F4F8F4F9F4F99238F
:1026C000A9F0F92F96E9BB279395F695879577950D
:1026D0006795B795F111F8CFFAF4BB0F11F460FFCD
:1026E0001BC06F5F7F4F8F4F9F4F16C0882311F025
:1026F00096E911C0772321F09EE8872F762F05C039
:10270000662371F096E8862F70E060E02AF09A95D3
:10271000660F771F881FDAF7880F9695879597F9C8
:102720000895990F0008550FAA0BE0E8FEEF161662
:102730001706E807F907C0F012161306E407F507B5
:1027400098F0621B730B840B950B39F40A2661F029
:10275000232B242B252B21F408950A2609F4A140CC
:10276000A6958FEF811D811D08950E94C8130C94BA
:102770003C140E942E1438F00E94351420F095234A
:1027800011F00C9425140C942B1411240C94701437
:102790000E944D1470F3959FC1F3950F50E0551FA3
:1027A000629FF001729FBB27F00DB11D639FAA27A6
:1027B000F00DB11DAA1F649F6627B00DA11D661FF5
:1027C000829F2227B00DA11D621F739FB00DA11D16
:1027D000621F839FA00D611D221F749F3327A00DD0
:1027E000611D231F849F600D211D822F762F6A2F6C
:1027F00011249F5750409AF0F1F088234AF0EE0FD1
:10280000FF1FBB1F661F771F881F91505040A9F7FD
:102810009E3F510580F00C9425140C9470145F3F7A
:10282000E4F3983ED4F3869577956795B795F79539
:10283000E7959F5FC1F7FE2B880F911D96958795B1
:1028400097F9089599278827089597F99F6780E851
:1028500070E060E008959FEF80EC089500240A94F2
:102860001616170618060906089500240A9412166B
:102870001306140605060895092E0394000C11F49E
:10288000882352F0BB0F40F4BF2B11F460FF04C04B
:102890006F5F7F4F8F4F9F4F089557FD9058440FA4
:1028A000551F59F05F3F71F04795880F97FB991FAF
:1028B00061F09F3F79F0879508951216130614066C
:1028C000551FF2CF4695F1DF08C0161617061806F9
:1028D000991FF1CF86957105610508940895E894D4
:1028E000BB2766277727CB0197F90895052E97FB1D
:1028F0001EF400940E948D1457FD07D00E94DF142F
:1029000007FC03D04EF40C948D14509540953095EF
:1029100021953F4F4F4F5F4F08959095809570954B
:1029200061957F4F8F4F9F4F08950E940115A59F7E
:10293000900DB49F900DA49F800D911D11240895BA
:10294000B7FF0C9495140E949514821B930B089565
:102950002F923F924F925F926F927F928F929F92AF
:10296000AF92BF92CF92DF92EF92FF920F931F939D
:10297000CF93DF93CDB7DEB7CA1BDB0B0FB6F8944E
:10298000DEBF0FBECDBF09942A88398848885F848E
:102990006E847D848C849B84AA84B984C884DF80FF
:1029A000EE80FD800C811B81AA81B981CE0FD11DE3
:1029B0000FB6F894DEBF0FBECDBFED010895A1E2C2
:1029C0001A2EAA1BBB1BFD010DC0AA1FBB1FEE1FA9
:1029D000FF1FA217B307E407F50720F0A21BB30BF4
:1029E000E40BF50B661F771F881F991F1A9469F770
:1029F00060957095809590959B01AC01BD01CF01CC
:102A00000895A29FB001B39FC001A39F700D811DC7
:102A10001124911DB29F700D811D1124911D0895E7
:102A20009F939F770E94A8160F90002042F4905821
:102A3000A2EA2AED3FE049E450E40E9439150C94E3
:102A40003C145058BB27AA270E9439150C943C14FB
:102A50000E942E1438F00E94351420F039F49F3F64
:102A600019F426F40C942B140EF4E095E7FB0C9467
:102A70002514E92F0E944D1458F3BA176207730703
:102A80008407950720F079F4A6F50C946F140EF4E2
:102A9000E0950B2EBA2FA02D0B01B90190010C016E
:102AA000CA01A0011124FF27591B99F0593F50F486
:102AB000503E68F11A16F040A22F232F342F4427DE
:102AC000585FF3CF469537952795A795F0405395D6
:102AD000C9F77EF41F16BA0B620B730B840BBAF0A6
:102AE0009150A1F0FF0FBB1F661F771F881FC2F711
:102AF0000EC0BA0F621F731F841F48F48795779525
:102B00006795B795F7959E3F08F0B0CF9395880FDE
:102B100008F09927EE0F9795879508950E942E1437
:102B200060F080E891E009F49EEF0E94351428F0EF
:102B300040E851E071F45EEF0CC00C942B140C943F
:102B40006F14E92FE0780E944D1440F3092E052AF6
:102B5000B1F3261737074807590738F00E2E07F844
:102B6000E02569F0E025E0640AC0EF6307F800940F
:102B700007FADB01B9019D01DC01CA01AD01EF9348
:102B80000E9417160E943C140E94D1155F91552394
:102B900039F02BED3FE049E450FD49EC0C9422154F
:102BA0000895DF93DD27B92FBF7740E85FE316165E
:102BB000170648075B0718F4D92F0E94F4169F9355
:102BC0008F937F936F930E944217E8E6F0E00E9494
:102BD000C8160E943C142F913F914F915F910E9423
:102BE000C813DD2351F09058A2EA2AED3FE049ECEA
:102BF0005FE3D0785D270E943915DF910C943C1477
:102C00000E9414160C943C140E94351458F00E9433
:102C10002E1440F029F45F3F29F00C942514511133
:102C20000C9470140C942B140E944D1468F3992387
:102C3000B1F3552391F3951B550BBB27AA276217B8
:102C40007307840738F09F5F5F4F220F331F441FC5
:102C5000AA1FA9F335D00E2E3AF0E0E832D09150F9
:102C60005040E695001CCAF72BD0FE2F29D0660FE6
:102C7000771F881FBB1F261737074807AB07B0E829
:102C800009F0BB0B802DBF01FF2793585F4F3AF02F
:102C90009E3F510578F00C9425140C9470145F3FFE
:102CA000E4F3983ED4F3869577956795B795F795B5
:102CB0009F5FC9F7880F911D9695879597F908959D
:102CC000E1E0660F771F881FBB1F62177307840739
:102CD000BA0720F0621B730B840BBA0BEE1F88F748
:102CE000E09508950E9479166894B1110C947014BF
:102CF00008950E94551488F09F5798F0B92F99278E
:102D0000B751B0F0E1F0660F771F881F991F1AF0D6
:102D1000BA95C9F714C0B13091F00E946F14B1E0B8
:102D200008950C946F14672F782F8827B85F39F0B7
:102D3000B93FCCF3869577956795B395D9F73EF46F
:102D400090958095709561957F4F8F4F9F4F089517
:102D5000DF93CF931F930F938B01EC01E5E9F0E034
:102D60000E94C8160E943C149801AE018B01EC0130
:102D700060E070E080E89FE30E9421150E94021746
:102D80009801AE010F911F91CF91DF910C94C81360
:102D9000DF93CF931F930F93FF92EF92DF927B010C
:102DA0008C01689406C0DA2EEF010E94C813FE0160
:102DB000E894A5912591359145915591A6F3EF01A0
:102DC0000E943915FE019701A801DA9469F7DF9096
:102DD000EF90FF900F911F91CF91DF9108950E9486
:102DE000911308F48FEF08959B01AC0160E070E04F
:102DF00080E89FE30C94001619F416F40C942B143D
:102E00000C944B170E945514B8F39923C9F3B6F3E9
:102E10009F57550B87FF0E9459170024A0E640EAF0
:102E2000900180585695979528F4805C660F771F1F
:102E3000881F20F026173707480730F4621B730BF2
:102E4000840B202931294A2BA69517940794202515
:102E500031254A2758F7660F771F881F20F026175D
:102E60003707480730F4620B730B840B200D311DBC
:102E7000411DA09581F7B901842F9158880F96952F
:102E8000879508959B01AC010C94B5130E94911392
:102E9000880B990B08959F3F31F0915020F487954E
:102EA00077956795B795880F911D9695879597F9B2
:102EB000089591505040660F771F881FD2F70895EC
:102EC000991B79E004C0991F961708F0961B881F7C
:102ED0007A95C9F780950895EE0FFF1F0590F4913C
:102EE000E02D09940F931F93CF93DF9382309105C8
:102EF00010F482E090E0E091CA04F091CB0430E05D
:102F000020E0B0E0A0E0309799F42115310509F4F4
:102F10004AC0281B390B24303105D8F58A819B81A2
:102F20006115710589F1FB0193838283FE0111C054
:102F3000408151810281138148175907E0F04817F9
:102F4000590799F4109761F012960C931297139603
:102F50001C933296CF01DF91CF911F910F9108956D
:102F60000093CA041093CB04F4CF2115310551F01E
:102F70004217530738F0A901DB019A01BD01DF01B7
:102F8000F801C1CFEF01F9CF9093CB048093CA042D
:102F9000CDCFFE01E20FF31F8193919322503109AF
:102FA00039832883D7CF2091C8043091C904232BBB
:102FB00041F420910201309103013093C904209320
:102FC000C80420910001309101012115310541F41F
:102FD0002DB73EB74091040150910501241B350BDC
:102FE000E091C804F091C904E217F307A0F42E1B86
:102FF0003F0B2817390778F0AC014E5F5F4F24175D
:10300000350748F04E0F5F1F5093C9044093C80422
:10301000819391939FCFF0E0E0E09CCFCF93DF933B
:103020000097E9F0FC01329713821282A091CA0442
:10303000B091CB04ED0130E020E01097A1F42081A5
:103040003181820F931F2091C8043091C904281741
:10305000390709F061C0F093C904E093C804DF9117
:10306000CF910895EA01CE17DF07E8F54A815B8129
:103070009E0141155105B1F7E901FB83EA834991AE
:103080005991C40FD51FEC17FD0761F48081918120
:103090000296840F951FE901998388838281938129
:1030A0009B838A83F0E0E0E012968D919C911397C8
:1030B0000097B9F52D913C911197CD010296820FA1
:1030C000931F2091C8043091C9042817390739F695
:1030D000309751F51092CB041092CA04B093C904F2
:1030E000A093C804BCCFD383C28340815181840F95
:1030F000951FC817D90761F44E5F5F4F888199818A
:10310000480F591F518340838A819B819383828317
:103110002115310509F0B0CFF093CB04E093CA0438
:103120009ECFFD01DC01C0CF13821282D7CFB0E069
:10313000A0E0EDE9F8E10C94AA148C01009751F499
:10314000CB010E9472178C01C801CDB7DEB7E0E158
:103150000C94C614FC01E60FF71F9C0122503109A4
:10316000E217F30708F49DC0D901CD91DC911197C6
:10317000C617D70798F0C530D10530F3CE010497B4
:103180008617970708F3C61BD70B2297C193D193D5
:103190006D937C93CF010E940E18D6CF5B01AC1AC1
:1031A000BD0A4C018C0E9D1EA091CA04B091CB04A7
:1031B000512C412CF12CE12C109731F58091C80451
:1031C0009091C9048815990509F05CC04616570608
:1031D00008F058C08091000190910101009741F4DE
:1031E0008DB79EB74091040150910501841B950B4A
:1031F000E817F90708F055C0F093C904E093C80434
:10320000F90171836083A0CF8D919C9111971296E3
:103210006C90129713967C901397A815B90559F5E1
:103220006C0142E0C40ED11CCA14DB0420F1AC01D5
:103230004A195B09DA011296159780F0628273824F
:1032400051834083D9016D937C93E114F10471F0B3
:10325000D7011396FC93EE93129776CF22968C0F9C
:103260009D1FF90191838083F301EFCFF093CB048D
:10327000E093CA0469CF4816590608F42C017D0171
:10328000D3019ACFCB010E9472177C01009749F0BD
:10329000AE01B8010E945419C8010E940E1887019E
:1032A00053CF10E000E050CFFB01DC0102C00190E1
:1032B0000D9241505040D8F70895FC018191861736
:1032C00021F08823D9F7992708953197CF010895E0
:1032D000FB01DC0101900D920020E1F70895FB0154
:1032E00051915523A9F0BF01DC014D9145174111C2
:1032F000E1F759F4CD010190002049F04D914015BE
:103300004111C9F3FB014111EFCF81E090E001973A
:10331000089511E0CCECD1E004C0FE010E946C17CE
:103320002196CD3CD107C9F7F894FFCF0000CC041B
:1033300080000000000028038802B5027503E60241
:10334000C402D8020D0A006E616E00696E66006FDD
:103350007666005B46756E6374696F6E20457272A7
:103360006F725D20536572766F416E61676C652088
:1033700076616C75653A2000206F7574206F662049
:103380006D696E2F6D61782072616E676521004AEC
:103390006F696E7441206465677265653A20004A02
:1033A0006F696E7443206465677265653A200047F3
:1033B0004F544F3A2058002C2059002C205A0024FA
:1033C000484F4D455F414C4C230024484F4D455FCD
:1033D000415849535F41230024484F4D455F4158B0
:1033E00049535F42230024484F4D455F4261736556
:1033F00023002453544154455F4944454C23002441
:1034000053544154455F535441525445442300247E
:1034100053544154455F53544F5050454423002466
:1034200053544154455F5354415254230024535440
:103430004154455F53544F50230024535441544545
:103440005F52455345542300244D4F44455F4D4141
:103450004E55414C2300244D4F44455F4155544F38
:10346000230024534552564F535F4154544143481F
:10347000230024534552564F535F4445544143481B
:10348000230024534552564F535F474F544F5F58C4
:103490002C592C5A230024534552564F535F4F50FA
:1034A000454E47524950230024534552564F535FCF
:1034B000434C4F53454752495023002453544154E1
:1034C00055535F47455453544154452300245354A6
:1034D000415455535F4745544D4F444523002D2DCE
:1034E0002D2D2D2D2D2D2D2D2D2D2D2D2D2D2D2D0C
:1034F0002D2D2D2D2D2D2D2D2D002D2D2D205374C9
:103500006172742053657269616C4D6F6E69746F7E
:1035100072202D2D2D003E3E2041726475696E6F24
:103520002052656365697665643A205B00534552B5
:10353000564F535F474F544F002C0028582C592C9E
:103540005A293A205B005B4552524F523A204E6F47
:10355000204D6F64652064657465637465645D0007
:107E0000112484B714BE81FFF0D085E080938100F7
:107E100082E08093C00088E18093C10086E0809377
:107E2000C20080E18093C4008EE0C9D0259A86E02C
:107E300020E33CEF91E0309385002093840096BBD3
:107E4000B09BFECF1D9AA8958150A9F7CC24DD24C4
:107E500088248394B5E0AB2EA1E19A2EF3E0BF2EE7
:107E6000A2D0813461F49FD0082FAFD0023811F036
:107E7000013811F484E001C083E08DD089C08234E0
:107E800011F484E103C0853419F485E0A6D080C0E4
:107E9000853579F488D0E82EFF2485D0082F10E0AE
:107EA000102F00270E291F29000F111F8ED06801E7
:107EB0006FC0863521F484E090D080E0DECF843638
:107EC00009F040C070D06FD0082F6DD080E0C81688
:107ED00080E7D80618F4F601B7BEE895C0E0D1E017
:107EE00062D089930C17E1F7F0E0CF16F0E7DF06D8
:107EF00018F0F601B7BEE89568D007B600FCFDCFD4
:107F0000A601A0E0B1E02C9130E011968C91119780
:107F100090E0982F8827822B932B1296FA010C0160
:107F200087BEE89511244E5F5F4FF1E0A038BF0790
:107F300051F7F601A7BEE89507B600FCFDCF97BE46
:107F4000E89526C08437B1F42ED02DD0F82E2BD052
:107F50003CD0F601EF2C8F010F5F1F4F84911BD097
:107F6000EA94F801C1F70894C11CD11CFA94CF0C13
:107F7000D11C0EC0853739F428D08EE10CD085E9AC
:107F80000AD08FE07ACF813511F488E018D01DD067
:107F900080E101D065CF982F8091C00085FFFCCF94
:107FA0009093C60008958091C00087FFFCCF809118
:107FB000C00084FD01C0A8958091C6000895E0E648
:107FC000F0E098E1908380830895EDDF803219F02E
:107FD00088E0F5DFFFCF84E1DECF1F93182FE3DFCA
:107FE0001150E9F7F2DF1F91089580E0E8DFEE27F6
:047FF000FF270994CA
:027FFE00040479
:00000001FF
